{
  "_format": "hh3-artifact-1",
  "contractName": "ServiceCreditToken",
  "sourceName": "contracts/ServiceCreditToken.sol",
  "abi": [
    {
      "inputs": [
        {
          "internalType": "string",
          "name": "baseURI",
          "type": "string"
        },
        {
          "internalType": "address",
          "name": "_feeCollector",
          "type": "address"
        },
        {
          "internalType": "address",
          "name": "_redemptionOracle",
          "type": "address"
        }
      ],
      "stateMutability": "nonpayable",
      "type": "constructor"
    },
    {
      "inputs": [
        {
          "internalType": "address",
          "name": "sender",
          "type": "address"
        },
        {
          "internalType": "uint256",
          "name": "balance",
          "type": "uint256"
        },
        {
          "internalType": "uint256",
          "name": "needed",
          "type": "uint256"
        },
        {
          "internalType": "uint256",
          "name": "tokenId",
          "type": "uint256"
        }
      ],
      "name": "ERC1155InsufficientBalance",
      "type": "error"
    },
    {
      "inputs": [
        {
          "internalType": "address",
          "name": "approver",
          "type": "address"
        }
      ],
      "name": "ERC1155InvalidApprover",
      "type": "error"
    },
    {
      "inputs": [
        {
          "internalType": "uint256",
          "name": "idsLength",
          "type": "uint256"
        },
        {
          "internalType": "uint256",
          "name": "valuesLength",
          "type": "uint256"
        }
      ],
      "name": "ERC1155InvalidArrayLength",
      "type": "error"
    },
    {
      "inputs": [
        {
          "internalType": "address",
          "name": "operator",
          "type": "address"
        }
      ],
      "name": "ERC1155InvalidOperator",
      "type": "error"
    },
    {
      "inputs": [
        {
          "internalType": "address",
          "name": "receiver",
          "type": "address"
        }
      ],
      "name": "ERC1155InvalidReceiver",
      "type": "error"
    },
    {
      "inputs": [
        {
          "internalType": "address",
          "name": "sender",
          "type": "address"
        }
      ],
      "name": "ERC1155InvalidSender",
      "type": "error"
    },
    {
      "inputs": [
        {
          "internalType": "address",
          "name": "operator",
          "type": "address"
        },
        {
          "internalType": "address",
          "name": "owner",
          "type": "address"
        }
      ],
      "name": "ERC1155MissingApprovalForAll",
      "type": "error"
    },
    {
      "inputs": [
        {
          "internalType": "address",
          "name": "owner",
          "type": "address"
        }
      ],
      "name": "OwnableInvalidOwner",
      "type": "error"
    },
    {
      "inputs": [
        {
          "internalType": "address",
          "name": "account",
          "type": "address"
        }
      ],
      "name": "OwnableUnauthorizedAccount",
      "type": "error"
    },
    {
      "inputs": [],
      "name": "ReentrancyGuardReentrantCall",
      "type": "error"
    },
    {
      "anonymous": false,
      "inputs": [
        {
          "indexed": true,
          "internalType": "address",
          "name": "account",
          "type": "address"
        },
        {
          "indexed": true,
          "internalType": "address",
          "name": "operator",
          "type": "address"
        },
        {
          "indexed": false,
          "internalType": "bool",
          "name": "approved",
          "type": "bool"
        }
      ],
      "name": "ApprovalForAll",
      "type": "event"
    },
    {
      "anonymous": false,
      "inputs": [
        {
          "indexed": true,
          "internalType": "address",
          "name": "previousOwner",
          "type": "address"
        },
        {
          "indexed": true,
          "internalType": "address",
          "name": "newOwner",
          "type": "address"
        }
      ],
      "name": "OwnershipTransferred",
      "type": "event"
    },
    {
      "anonymous": false,
      "inputs": [
        {
          "indexed": true,
          "internalType": "address",
          "name": "provider",
          "type": "address"
        }
      ],
      "name": "ProviderRegistered",
      "type": "event"
    },
    {
      "anonymous": false,
      "inputs": [
        {
          "indexed": true,
          "internalType": "uint256",
          "name": "tokenId",
          "type": "uint256"
        },
        {
          "indexed": true,
          "internalType": "address",
          "name": "provider",
          "type": "address"
        },
        {
          "indexed": false,
          "internalType": "uint128",
          "name": "price",
          "type": "uint128"
        },
        {
          "indexed": false,
          "internalType": "string",
          "name": "tokenURI",
          "type": "string"
        }
      ],
      "name": "ServiceCreated",
      "type": "event"
    },
    {
      "anonymous": false,
      "inputs": [
        {
          "indexed": true,
          "internalType": "uint256",
          "name": "tokenId",
          "type": "uint256"
        },
        {
          "indexed": false,
          "internalType": "uint256",
          "name": "unredeemedAmount",
          "type": "uint256"
        }
      ],
      "name": "ServiceExpired",
      "type": "event"
    },
    {
      "anonymous": false,
      "inputs": [
        {
          "indexed": true,
          "internalType": "uint256",
          "name": "tokenId",
          "type": "uint256"
        },
        {
          "indexed": true,
          "internalType": "address",
          "name": "redeemer",
          "type": "address"
        },
        {
          "indexed": false,
          "internalType": "uint128",
          "name": "value",
          "type": "uint128"
        }
      ],
      "name": "ServiceRedeemed",
      "type": "event"
    },
    {
      "anonymous": false,
      "inputs": [
        {
          "indexed": true,
          "internalType": "address",
          "name": "operator",
          "type": "address"
        },
        {
          "indexed": true,
          "internalType": "address",
          "name": "from",
          "type": "address"
        },
        {
          "indexed": true,
          "internalType": "address",
          "name": "to",
          "type": "address"
        },
        {
          "indexed": false,
          "internalType": "uint256[]",
          "name": "ids",
          "type": "uint256[]"
        },
        {
          "indexed": false,
          "internalType": "uint256[]",
          "name": "values",
          "type": "uint256[]"
        }
      ],
      "name": "TransferBatch",
      "type": "event"
    },
    {
      "anonymous": false,
      "inputs": [
        {
          "indexed": true,
          "internalType": "address",
          "name": "operator",
          "type": "address"
        },
        {
          "indexed": true,
          "internalType": "address",
          "name": "from",
          "type": "address"
        },
        {
          "indexed": true,
          "internalType": "address",
          "name": "to",
          "type": "address"
        },
        {
          "indexed": false,
          "internalType": "uint256",
          "name": "id",
          "type": "uint256"
        },
        {
          "indexed": false,
          "internalType": "uint256",
          "name": "value",
          "type": "uint256"
        }
      ],
      "name": "TransferSingle",
      "type": "event"
    },
    {
      "anonymous": false,
      "inputs": [
        {
          "indexed": false,
          "internalType": "string",
          "name": "value",
          "type": "string"
        },
        {
          "indexed": true,
          "internalType": "uint256",
          "name": "id",
          "type": "uint256"
        }
      ],
      "name": "URI",
      "type": "event"
    },
    {
      "inputs": [
        {
          "internalType": "address",
          "name": "account",
          "type": "address"
        },
        {
          "internalType": "uint256",
          "name": "id",
          "type": "uint256"
        }
      ],
      "name": "balanceOf",
      "outputs": [
        {
          "internalType": "uint256",
          "name": "",
          "type": "uint256"
        }
      ],
      "stateMutability": "view",
      "type": "function"
    },
    {
      "inputs": [
        {
          "internalType": "address[]",
          "name": "accounts",
          "type": "address[]"
        },
        {
          "internalType": "uint256[]",
          "name": "ids",
          "type": "uint256[]"
        }
      ],
      "name": "balanceOfBatch",
      "outputs": [
        {
          "internalType": "uint256[]",
          "name": "",
          "type": "uint256[]"
        }
      ],
      "stateMutability": "view",
      "type": "function"
    },
    {
      "inputs": [
        {
          "internalType": "uint128",
          "name": "price",
          "type": "uint128"
        },
        {
          "internalType": "uint64",
          "name": "expiryTimestamp",
          "type": "uint64"
        },
        {
          "internalType": "uint32",
          "name": "maxSupply",
          "type": "uint32"
        },
        {
          "internalType": "uint8",
          "name": "serviceType",
          "type": "uint8"
        },
        {
          "internalType": "string",
          "name": "tokenURI",
          "type": "string"
        }
      ],
      "name": "createService",
      "outputs": [
        {
          "internalType": "uint256",
          "name": "",
          "type": "uint256"
        }
      ],
      "stateMutability": "nonpayable",
      "type": "function"
    },
    {
      "inputs": [],
      "name": "feeCollector",
      "outputs": [
        {
          "internalType": "address",
          "name": "",
          "type": "address"
        }
      ],
      "stateMutability": "view",
      "type": "function"
    },
    {
      "inputs": [
        {
          "internalType": "address",
          "name": "provider",
          "type": "address"
        }
      ],
      "name": "getProviderStats",
      "outputs": [
        {
          "internalType": "uint32",
          "name": "totalServices",
          "type": "uint32"
        },
        {
          "internalType": "uint128",
          "name": "totalValueLocked",
          "type": "uint128"
        },
        {
          "internalType": "bool",
          "name": "isVerified",
          "type": "bool"
        },
        {
          "internalType": "uint64",
          "name": "registrationTime",
          "type": "uint64"
        }
      ],
      "stateMutability": "view",
      "type": "function"
    },
    {
      "inputs": [
        {
          "internalType": "uint256",
          "name": "tokenId",
          "type": "uint256"
        }
      ],
      "name": "getRedemptionCount",
      "outputs": [
        {
          "internalType": "uint256",
          "name": "",
          "type": "uint256"
        }
      ],
      "stateMutability": "view",
      "type": "function"
    },
    {
      "inputs": [
        {
          "internalType": "uint256",
          "name": "tokenId",
          "type": "uint256"
        }
      ],
      "name": "getRedemptionRate",
      "outputs": [
        {
          "internalType": "uint256",
          "name": "",
          "type": "uint256"
        }
      ],
      "stateMutability": "view",
      "type": "function"
    },
    {
      "inputs": [
        {
          "internalType": "uint256",
          "name": "tokenId",
          "type": "uint256"
        }
      ],
      "name": "getServiceInfo",
      "outputs": [
        {
          "internalType": "uint128",
          "name": "price",
          "type": "uint128"
        },
        {
          "internalType": "uint64",
          "name": "expiryTimestamp",
          "type": "uint64"
        },
        {
          "internalType": "uint32",
          "name": "maxSupply",
          "type": "uint32"
        },
        {
          "internalType": "uint32",
          "name": "totalMinted",
          "type": "uint32"
        },
        {
          "internalType": "bool",
          "name": "active",
          "type": "bool"
        }
      ],
      "stateMutability": "view",
      "type": "function"
    },
    {
      "inputs": [
        {
          "internalType": "uint256",
          "name": "tokenId",
          "type": "uint256"
        }
      ],
      "name": "getServiceRevenue",
      "outputs": [
        {
          "internalType": "uint128",
          "name": "",
          "type": "uint128"
        }
      ],
      "stateMutability": "view",
      "type": "function"
    },
    {
      "inputs": [
        {
          "internalType": "uint256",
          "name": "tokenId",
          "type": "uint256"
        }
      ],
      "name": "getServiceStats",
      "outputs": [
        {
          "internalType": "uint128",
          "name": "price",
          "type": "uint128"
        },
        {
          "internalType": "uint32",
          "name": "totalMinted",
          "type": "uint32"
        },
        {
          "internalType": "uint256",
          "name": "totalRedeemed",
          "type": "uint256"
        },
        {
          "internalType": "uint256",
          "name": "redemptionRateBps",
          "type": "uint256"
        },
        {
          "internalType": "uint128",
          "name": "revenue",
          "type": "uint128"
        },
        {
          "internalType": "bool",
          "name": "active",
          "type": "bool"
        },
        {
          "internalType": "bool",
          "name": "expired",
          "type": "bool"
        }
      ],
      "stateMutability": "view",
      "type": "function"
    },
    {
      "inputs": [
        {
          "internalType": "uint256",
          "name": "tokenId",
          "type": "uint256"
        }
      ],
      "name": "handleExpiredService",
      "outputs": [],
      "stateMutability": "nonpayable",
      "type": "function"
    },
    {
      "inputs": [
        {
          "internalType": "address",
          "name": "account",
          "type": "address"
        },
        {
          "internalType": "address",
          "name": "operator",
          "type": "address"
        }
      ],
      "name": "isApprovedForAll",
      "outputs": [
        {
          "internalType": "bool",
          "name": "",
          "type": "bool"
        }
      ],
      "stateMutability": "view",
      "type": "function"
    },
    {
      "inputs": [
        {
          "internalType": "uint256",
          "name": "tokenId",
          "type": "uint256"
        },
        {
          "internalType": "uint256",
          "name": "amount",
          "type": "uint256"
        }
      ],
      "name": "mintCredit",
      "outputs": [],
      "stateMutability": "payable",
      "type": "function"
    },
    {
      "inputs": [],
      "name": "nextTokenId",
      "outputs": [
        {
          "internalType": "uint256",
          "name": "",
          "type": "uint256"
        }
      ],
      "stateMutability": "view",
      "type": "function"
    },
    {
      "inputs": [],
      "name": "owner",
      "outputs": [
        {
          "internalType": "address",
          "name": "",
          "type": "address"
        }
      ],
      "stateMutability": "view",
      "type": "function"
    },
    {
      "inputs": [],
      "name": "platformFee",
      "outputs": [
        {
          "internalType": "uint256",
          "name": "",
          "type": "uint256"
        }
      ],
      "stateMutability": "view",
      "type": "function"
    },
    {
      "inputs": [
        {
          "internalType": "address",
          "name": "",
          "type": "address"
        }
      ],
      "name": "providers",
      "outputs": [
        {
          "internalType": "address",
          "name": "providerAddress",
          "type": "address"
        },
        {
          "internalType": "uint128",
          "name": "totalValueLocked",
          "type": "uint128"
        },
        {
          "internalType": "uint64",
          "name": "registrationTime",
          "type": "uint64"
        },
        {
          "internalType": "uint32",
          "name": "serviceCount",
          "type": "uint32"
        },
        {
          "internalType": "bool",
          "name": "verified",
          "type": "bool"
        },
        {
          "internalType": "bool",
          "name": "active",
          "type": "bool"
        }
      ],
      "stateMutability": "view",
      "type": "function"
    },
    {
      "inputs": [
        {
          "internalType": "uint256",
          "name": "tokenId",
          "type": "uint256"
        },
        {
          "internalType": "address",
          "name": "redeemer",
          "type": "address"
        },
        {
          "internalType": "uint256",
          "name": "amount",
          "type": "uint256"
        }
      ],
      "name": "redeemCredit",
      "outputs": [],
      "stateMutability": "nonpayable",
      "type": "function"
    },
    {
      "inputs": [],
      "name": "redemptionOracle",
      "outputs": [
        {
          "internalType": "address",
          "name": "",
          "type": "address"
        }
      ],
      "stateMutability": "view",
      "type": "function"
    },
    {
      "inputs": [
        {
          "internalType": "uint256",
          "name": "",
          "type": "uint256"
        },
        {
          "internalType": "uint256",
          "name": "",
          "type": "uint256"
        }
      ],
      "name": "redemptions",
      "outputs": [
        {
          "internalType": "uint256",
          "name": "tokenId",
          "type": "uint256"
        },
        {
          "internalType": "address",
          "name": "redeemer",
          "type": "address"
        },
        {
          "internalType": "uint64",
          "name": "timestamp",
          "type": "uint64"
        },
        {
          "internalType": "uint128",
          "name": "valueRedeemed",
          "type": "uint128"
        },
        {
          "internalType": "bool",
          "name": "completed",
          "type": "bool"
        }
      ],
      "stateMutability": "view",
      "type": "function"
    },
    {
      "inputs": [],
      "name": "registerProvider",
      "outputs": [],
      "stateMutability": "nonpayable",
      "type": "function"
    },
    {
      "inputs": [],
      "name": "renounceOwnership",
      "outputs": [],
      "stateMutability": "nonpayable",
      "type": "function"
    },
    {
      "inputs": [
        {
          "internalType": "address",
          "name": "from",
          "type": "address"
        },
        {
          "internalType": "address",
          "name": "to",
          "type": "address"
        },
        {
          "internalType": "uint256[]",
          "name": "ids",
          "type": "uint256[]"
        },
        {
          "internalType": "uint256[]",
          "name": "values",
          "type": "uint256[]"
        },
        {
          "internalType": "bytes",
          "name": "data",
          "type": "bytes"
        }
      ],
      "name": "safeBatchTransferFrom",
      "outputs": [],
      "stateMutability": "nonpayable",
      "type": "function"
    },
    {
      "inputs": [
        {
          "internalType": "address",
          "name": "from",
          "type": "address"
        },
        {
          "internalType": "address",
          "name": "to",
          "type": "address"
        },
        {
          "internalType": "uint256",
          "name": "id",
          "type": "uint256"
        },
        {
          "internalType": "uint256",
          "name": "value",
          "type": "uint256"
        },
        {
          "internalType": "bytes",
          "name": "data",
          "type": "bytes"
        }
      ],
      "name": "safeTransferFrom",
      "outputs": [],
      "stateMutability": "nonpayable",
      "type": "function"
    },
    {
      "inputs": [
        {
          "internalType": "uint256",
          "name": "",
          "type": "uint256"
        }
      ],
      "name": "services",
      "outputs": [
        {
          "internalType": "uint128",
          "name": "price",
          "type": "uint128"
        },
        {
          "internalType": "uint64",
          "name": "expiryTimestamp",
          "type": "uint64"
        },
        {
          "internalType": "uint32",
          "name": "maxSupply",
          "type": "uint32"
        },
        {
          "internalType": "uint32",
          "name": "totalMinted",
          "type": "uint32"
        },
        {
          "internalType": "bool",
          "name": "active",
          "type": "bool"
        },
        {
          "internalType": "uint8",
          "name": "serviceType",
          "type": "uint8"
        }
      ],
      "stateMutability": "view",
      "type": "function"
    },
    {
      "inputs": [
        {
          "internalType": "address",
          "name": "operator",
          "type": "address"
        },
        {
          "internalType": "bool",
          "name": "approved",
          "type": "bool"
        }
      ],
      "name": "setApprovalForAll",
      "outputs": [],
      "stateMutability": "nonpayable",
      "type": "function"
    },
    {
      "inputs": [
        {
          "internalType": "bytes4",
          "name": "interfaceId",
          "type": "bytes4"
        }
      ],
      "name": "supportsInterface",
      "outputs": [
        {
          "internalType": "bool",
          "name": "",
          "type": "bool"
        }
      ],
      "stateMutability": "view",
      "type": "function"
    },
    {
      "inputs": [
        {
          "internalType": "address",
          "name": "newOwner",
          "type": "address"
        }
      ],
      "name": "transferOwnership",
      "outputs": [],
      "stateMutability": "nonpayable",
      "type": "function"
    },
    {
      "inputs": [
        {
          "internalType": "address",
          "name": "newOracle",
          "type": "address"
        }
      ],
      "name": "updateOracle",
      "outputs": [],
      "stateMutability": "nonpayable",
      "type": "function"
    },
    {
      "inputs": [
        {
          "internalType": "uint256",
          "name": "newFee",
          "type": "uint256"
        }
      ],
      "name": "updatePlatformFee",
      "outputs": [],
      "stateMutability": "nonpayable",
      "type": "function"
    },
    {
      "inputs": [
        {
          "internalType": "uint256",
          "name": "tokenId",
          "type": "uint256"
        }
      ],
      "name": "uri",
      "outputs": [
        {
          "internalType": "string",
          "name": "",
          "type": "string"
        }
      ],
      "stateMutability": "view",
      "type": "function"
    },
    {
      "inputs": [
        {
          "internalType": "uint256",
          "name": "",
          "type": "uint256"
        },
        {
          "internalType": "address",
          "name": "",
          "type": "address"
        }
      ],
      "name": "userBalances",
      "outputs": [
        {
          "internalType": "uint256",
          "name": "",
          "type": "uint256"
        }
      ],
      "stateMutability": "view",
      "type": "function"
    }
  ],
  "bytecode": "0x60806040526001600a556019600b55348015610019575f5ffd5b50604051612f5a380380612f5a83398101604081905261003891610142565b3383610043816100b2565b506001600160a01b03811661007157604051631e4fbdf760e01b81525f600482015260240160405180910390fd5b61007a816100c2565b506001600455600c80546001600160a01b039384166001600160a01b031991821617909155600d805492909316911617905550610350565b60026100be8282610296565b5050565b600380546001600160a01b038381166001600160a01b0319831681179093556040519116919082907f8be0079c531659141344cd1fd0a4f28419497f9722a3daafe3b4186f6b6457e0905f90a35050565b634e487b7160e01b5f52604160045260245ffd5b80516001600160a01b038116811461013d575f5ffd5b919050565b5f5f5f60608486031215610154575f5ffd5b83516001600160401b03811115610169575f5ffd5b8401601f81018613610179575f5ffd5b80516001600160401b0381111561019257610192610113565b604051601f8201601f19908116603f011681016001600160401b03811182821017156101c0576101c0610113565b6040528181528282016020018810156101d7575f5ffd5b8160208401602083015e5f602083830101528095505050506101fb60208501610127565b915061020960408501610127565b90509250925092565b600181811c9082168061022657607f821691505b60208210810361024457634e487b7160e01b5f52602260045260245ffd5b50919050565b601f82111561029157805f5260205f20601f840160051c8101602085101561026f5750805b601f840160051c820191505b8181101561028e575f815560010161027b565b50505b505050565b81516001600160401b038111156102af576102af610113565b6102c3816102bd8454610212565b8461024a565b6020601f8211600181146102f5575f83156102de5750848201515b5f19600385901b1c1916600184901b17845561028e565b5f84815260208120601f198516915b828110156103245787850151825560209485019460019092019101610304565b508482101561034157868401515f19600387901b60f8161c191681555b50505050600190811b01905550565b612bfd8061035d5f395ff3fe6080604052600436106101da575f3560e01c8063a22cb465116100fd578063da2c3faa11610092578063e985e9c511610062578063e985e9c51461092e578063f242432a1461094d578063f2fde38b1461096c578063f769c6d01461098b575f5ffd5b8063da2c3faa146107ca578063db22c052146107f5578063db81fe9b14610808578063e5e75b7d1461083e575f5ffd5b8063c307e9ba116100cd578063c307e9ba146106e9578063c415b95c14610755578063d5f6c95814610774578063d9f16af614610793575f5ffd5b8063a22cb46514610584578063aa0b5988146105a3578063c22c4f43146105c2578063c304036a14610682575f5ffd5b80633aeedbd011610173578063715018a611610143578063715018a61461045157806375794a3c1461046557806382a8ea581461047a5780638da5cb5b14610567575f5ffd5b80633aeedbd0146103b05780634e1273f4146103cf57806358b8a5d6146103fb5780635ee600e71461041a575f5ffd5b806314527ee1116101ae57806314527ee11461033c5780631cb44dfc1461035d57806326232a2e1461037c5780632eb2c2d614610391575f5ffd5b8062fdd58e146101de57806301ffc9a7146102105780630787bc271461023f5780630e89341c14610310575b5f5ffd5b3480156101e9575f5ffd5b506101fd6101f836600461231e565b61099f565b6040519081526020015b60405180910390f35b34801561021b575f5ffd5b5061022f61022a36600461235b565b6109c6565b6040519015158152602001610207565b34801561024a575f5ffd5b506102bb610259366004612376565b60066020525f9081526040902080546001909101546001600160a01b03909116906001600160801b038116906001600160401b03600160801b8204169063ffffffff600160c01b8204169060ff600160e01b8204811691600160e81b90041686565b604080516001600160a01b0390971687526001600160801b0390951660208701526001600160401b039093169385019390935263ffffffff1660608401529015156080830152151560a082015260c001610207565b34801561031b575f5ffd5b5061032f61032a36600461238f565b610a15565b60405161020791906123d4565b348015610347575f5ffd5b5061035b61035636600461238f565b610acf565b005b348015610368575f5ffd5b5061035b610377366004612376565b610bca565b348015610387575f5ffd5b506101fd600b5481565b34801561039c575f5ffd5b5061035b6103ab366004612527565b610bf4565b3480156103bb575f5ffd5b5061035b6103ca3660046125d3565b610c5b565b3480156103da575f5ffd5b506103ee6103e9366004612606565b610e9e565b6040516102079190612701565b348015610406575f5ffd5b506101fd61041536600461238f565b610f68565b348015610425575f5ffd5b50600d54610439906001600160a01b031681565b6040516001600160a01b039091168152602001610207565b34801561045c575f5ffd5b5061035b61102f565b348015610470575f5ffd5b506101fd600a5481565b348015610485575f5ffd5b5061052261049436600461238f565b5f90815260056020908152604091829020825160c08101845281546001600160801b0381168083526001600160401b03600160801b83041694830185905263ffffffff600160c01b83048116968401879052600160e01b9092049091166060830181905260019093015460ff8082161515608085018190526101009092041660a09093019290925294929392565b604080516001600160801b0390961686526001600160401b03909416602086015263ffffffff928316938501939093521660608301521515608082015260a001610207565b348015610572575f5ffd5b506003546001600160a01b0316610439565b34801561058f575f5ffd5b5061035b61059e366004612713565b611042565b3480156105ae575f5ffd5b5061035b6105bd36600461238f565b611051565b3480156105cd575f5ffd5b506106346105dc36600461238f565b60056020525f9081526040902080546001909101546001600160801b038216916001600160401b03600160801b8204169163ffffffff600160c01b8304811692600160e01b9004169060ff8082169161010090041686565b604080516001600160801b0390971687526001600160401b03909516602087015263ffffffff93841694860194909452911660608401521515608083015260ff1660a082015260c001610207565b34801561068d575f5ffd5b506106a161069c36600461274c565b61109f565b604080519586526001600160a01b0390941660208601526001600160401b03909216928401929092526001600160801b0390911660608301521515608082015260a001610207565b3480156106f4575f5ffd5b5061070861070336600461238f565b61110d565b604080516001600160801b03988916815263ffffffff9097166020880152860194909452606085019290925293909316608083015291151560a082015290151560c082015260e001610207565b348015610760575f5ffd5b50600c54610439906001600160a01b031681565b34801561077f575f5ffd5b506101fd61078e36600461277c565b61121b565b34801561079e575f5ffd5b506107b26107ad36600461238f565b6115a1565b6040516001600160801b039091168152602001610207565b3480156107d5575f5ffd5b506101fd6107e436600461238f565b5f9081526008602052604090205490565b61035b61080336600461274c565b611638565b348015610813575f5ffd5b506101fd610822366004612801565b600760209081525f928352604080842090915290825290205481565b348015610849575f5ffd5b506108f0610858366004612376565b6001600160a01b038082165f90815260066020908152604091829020825160c08101845281549094168452600101546001600160801b0381169184018290526001600160401b03600160801b82041692840183905263ffffffff600160c01b8204166060850181905260ff600160e01b83048116151560808701819052600160e81b90930416151560a0909501949094529093509193565b6040805163ffffffff90951685526001600160801b039093166020850152901515918301919091526001600160401b03166060820152608001610207565b348015610939575f5ffd5b5061022f61094836600461282b565b6118d9565b348015610958575f5ffd5b5061035b610967366004612853565b611906565b348015610977575f5ffd5b5061035b610986366004612376565b611965565b348015610996575f5ffd5b5061035b6119a2565b5f818152602081815260408083206001600160a01b03861684529091529020545b92915050565b5f6001600160e01b03198216636cdb3d1360e11b14806109f657506001600160e01b031982166303a24d0760e21b145b806109c057506301ffc9a760e01b6001600160e01b03198316146109c0565b5f81815260096020526040812080546060929190610a32906128a6565b80601f0160208091040260200160405190810160405280929190818152602001828054610a5e906128a6565b8015610aa95780601f10610a8057610100808354040283529160200191610aa9565b820191905f5260205f20905b815481529060010190602001808311610a8c57829003601f168201915b505050505090505f81511115610abf5792915050565b610ac883611b19565b9392505050565b5f8181526005602052604090208054600160801b90046001600160401b0316421015610b305760405162461bcd60e51b815260206004820152600b60248201526a139bdd08195e1c1a5c995960aa1b60448201526064015b60405180910390fd5b600181015460ff16610b765760405162461bcd60e51b815260206004820152600f60248201526e105b1c9958591e481a185b991b1959608a1b6044820152606401610b27565b60018101805460ff191690558054604051600160e01b90910463ffffffff16815282907ffdcd1cd0a56973fe43dd06d030725c455ce22b3b9dbdf7c81ef033ac3673481c9060200160405180910390a25050565b610bd2611bab565b600d80546001600160a01b0319166001600160a01b0392909216919091179055565b336001600160a01b0386168114801590610c155750610c1386826118d9565b155b15610c465760405163711bec9160e11b81526001600160a01b03808316600483015287166024820152604401610b27565b610c538686868686611bd8565b505050505050565b600d546001600160a01b03163314610ca25760405162461bcd60e51b815260206004820152600a6024820152694e6f74206f7261636c6560b01b6044820152606401610b27565b80610cad838561099f565b1015610cf25760405162461bcd60e51b8152602060048201526014602482015273496e73756666696369656e742062616c616e636560601b6044820152606401610b27565b5f83815260056020526040902054600160801b90046001600160401b03164210610d485760405162461bcd60e51b8152602060048201526007602482015266115e1c1a5c995960ca1b6044820152606401610b27565b610d53828483611c3d565b5f83815260056020526040812054610d759083906001600160801b03166128f2565b5f858152600860209081526040808320815160a0810183528981526001600160a01b03808a168286018181526001600160401b034281168588019081526001600160801b03808c16606088019081526001608089018181528a548083018c559a8e529b909c2097516003909902909701978855925199870180549151909216600160a01b026001600160e01b031990911699909416989098179290921790965590516002909201805494511515600160801b0270ffffffffffffffffffffffffffffffffff19909516929091169190911792909217909155519192509085907fae82a0c712aa67e2e4e23c122f2dad3d69371493682e567acf2c7f4f9c131e5790610e909085906001600160801b0391909116815260200190565b60405180910390a350505050565b60608151835114610ecf5781518351604051635b05999160e01b815260048101929092526024820152604401610b27565b5f83516001600160401b03811115610ee957610ee96123e6565b604051908082528060200260200182016040528015610f12578160200160208202803683370190505b5090505f5b8451811015610f6057602080820286010151610f3b9060208084028701015161099f565b828281518110610f4d57610f4d612909565b6020908102919091010152600101610f17565b509392505050565b5f818152600560209081526040808320815160c08101835281546001600160801b03811682526001600160401b03600160801b8204169482019490945263ffffffff600160c01b8504811693820193909352600160e01b9093049091166060830181905260019091015460ff808216151560808501526101009091041660a08301528203610ff857505f92915050565b5f83815260086020526040902054606082015163ffffffff1661101d826127106128f2565b611027919061291d565b949350505050565b611037611bab565b6110405f611ca3565b565b61104d338383611cf4565b5050565b611059611bab565b6101f481111561109a5760405162461bcd60e51b815260206004820152600c60248201526b08ccaca40e8dede40d0d2ced60a31b6044820152606401610b27565b600b55565b6008602052815f5260405f2081815481106110b8575f80fd5b5f9182526020909120600390910201805460018201546002909201549093506001600160a01b0382169250600160a01b9091046001600160401b0316906001600160801b03811690600160801b900460ff1685565b5f818152600560209081526040808320815160c08101835281546001600160801b03811682526001600160401b03600160801b8204168286015263ffffffff600160c01b8204811683860152600160e01b90910481166060830190815260019093015460ff808216151560808501526101009091041660a083015286865260089094529184205482519151859485948594859485948594919291839082166111b5575f6111d6565b606085015163ffffffff166111cc856127106128f2565b6111d6919061291d565b85516111ec9086906001600160801b03166128f2565b6080870151602090970151949f939e50919c509a5098509296506001600160401b031642101594509092505050565b335f90815260066020526040812060010154600160e81b900460ff166112795760405162461bcd60e51b81526020600482015260136024820152722737ba1030b1ba34bb3290383937bb34b232b960691b6044820152606401610b27565b5f866001600160801b0316116112c15760405162461bcd60e51b815260206004820152600d60248201526c496e76616c696420707269636560981b6044820152606401610b27565b42856001600160401b03161161130a5760405162461bcd60e51b815260206004820152600e60248201526d496e76616c69642065787069727960901b6044820152606401610b27565b5f8463ffffffff16116113505760405162461bcd60e51b815260206004820152600e60248201526d496e76616c696420737570706c7960901b6044820152606401610b27565b5f82511161138c5760405162461bcd60e51b8152602060048201526009602482015268456d7074792055524960b81b6044820152606401610b27565b600a80545f918261139c8361293c565b9190505590506040518060c00160405280886001600160801b03168152602001876001600160401b031681526020018663ffffffff1681526020015f63ffffffff1681526020016001151581526020018560ff1681525060055f8381526020019081526020015f205f820151815f015f6101000a8154816001600160801b0302191690836001600160801b031602179055506020820151815f0160106101000a8154816001600160401b0302191690836001600160401b031602179055506040820151815f0160186101000a81548163ffffffff021916908363ffffffff1602179055506060820151815f01601c6101000a81548163ffffffff021916908363ffffffff1602179055506080820151816001015f6101000a81548160ff02191690831515021790555060a08201518160010160016101000a81548160ff021916908360ff1602179055509050508260095f8381526020019081526020015f209081611507919061299d565b50335f9081526006602052604090206001018054600160c01b900463ffffffff1690601861153483612a57565b91906101000a81548163ffffffff021916908363ffffffff16021790555050336001600160a01b0316817ff7051454e87070e257711c165a747054fef35382cb8b8112bcbd6f78e2bd721b898660405161158f929190612a7b565b60405180910390a39695505050505050565b5f818152600560209081526040808320815160c08101835281546001600160801b0380821683526001600160401b03600160801b8304168387015263ffffffff600160c01b8304811684870152600160e01b909204909116606083015260019092015460ff808216151560808401526101009091041660a082015285855260089093529083205482519091611027918391166128f2565b611640611d88565b5f828152600560205260409020600181015460ff166116945760405162461bcd60e51b815260206004820152601060248201526f5365727669636520696e61637469766560801b6044820152606401610b27565b8054600160801b90046001600160401b031642106116e65760405162461bcd60e51b815260206004820152600f60248201526e14d95c9d9a58d948195e1c1a5c9959608a1b6044820152606401610b27565b805463ffffffff600160c01b820481169161170a918591600160e01b900416612a9c565b111561174d5760405162461bcd60e51b815260206004820152601260248201527145786365656473206d617820737570706c7960701b6044820152606401610b27565b80545f906117659084906001600160801b03166128f2565b9050803410156117ae5760405162461bcd60e51b8152602060048201526014602482015273125b9cdd59999a58da595b9d081c185e5b595b9d60621b6044820152606401610b27565b5f612710600b54836117c091906128f2565b6117ca919061291d565b835490915084908490601c906117ee908490600160e01b900463ffffffff16612aaf565b825463ffffffff9182166101009390930a9283029190920219909116179055505f85815260076020908152604080832033845290915281208054869290611836908490612a9c565b9250508190555061185733868660405180602001604052805f815250611db2565b600c546040516001600160a01b039091169082156108fc029083905f818181858888f1935050505015801561188e573d5f5f3e3d5ffd5b50813411156118cc57336108fc6118a58434612acb565b6040518115909202915f818181858888f193505050501580156118ca573d5f5f3e3d5ffd5b505b50505061104d6001600455565b6001600160a01b039182165f90815260016020908152604080832093909416825291909152205460ff1690565b336001600160a01b0386168114801590611927575061192586826118d9565b155b156119585760405163711bec9160e11b81526001600160a01b03808316600483015287166024820152604401610b27565b610c538686868686611e0d565b61196d611bab565b6001600160a01b03811661199657604051631e4fbdf760e01b81525f6004820152602401610b27565b61199f81611ca3565b50565b335f90815260066020526040902060010154600160e81b900460ff1615611a005760405162461bcd60e51b8152602060048201526012602482015271105b1c9958591e481c9959da5cdd195c995960721b6044820152606401610b27565b6040805160c081018252338082525f60208084018281526001600160401b034281168688019081526060870185815260808801868152600160a08a0181815289895260069097528a882099518a546001600160a01b03919091166001600160a01b0319909116178a55945198909401805492519151945195511515600160e81b0260ff60e81b19961515600160e01b0260ff60e01b1963ffffffff97909716600160c01b029690961664ffffffffff60c01b1993909516600160801b026001600160c01b03199094166001600160801b039a909a169990991792909217169190911791909117919091169390931790925591517f70abce74777b3838ae60a33a6b9a87d9d25532668fe4fea548554c55868579c09190a2565b606060028054611b28906128a6565b80601f0160208091040260200160405190810160405280929190818152602001828054611b54906128a6565b8015611b9f5780601f10611b7657610100808354040283529160200191611b9f565b820191905f5260205f20905b815481529060010190602001808311611b8257829003601f168201915b50505050509050919050565b6003546001600160a01b031633146110405760405163118cdaa760e01b8152336004820152602401610b27565b6001600160a01b038416611c0157604051632bfa23e760e11b81525f6004820152602401610b27565b6001600160a01b038516611c2957604051626a0d4560e21b81525f6004820152602401610b27565b611c368585858585611e99565b5050505050565b6001600160a01b038316611c6557604051626a0d4560e21b81525f6004820152602401610b27565b604080516001808252602082018590528183019081526060820184905260a082019092525f60808201818152919291611c3691879185908590611e99565b600380546001600160a01b038381166001600160a01b0319831681179093556040519116919082907f8be0079c531659141344cd1fd0a4f28419497f9722a3daafe3b4186f6b6457e0905f90a35050565b6001600160a01b038216611d1c5760405162ced3e160e81b81525f6004820152602401610b27565b6001600160a01b038381165f81815260016020908152604080832094871680845294825291829020805460ff191686151590811790915591519182527f17307eab39ab6107e8899845ad3d59bd9653f200f220920489ca2b5937696c31910160405180910390a3505050565b600260045403611dab57604051633ee5aeb560e01b815260040160405180910390fd5b6002600455565b6001600160a01b038416611ddb57604051632bfa23e760e11b81525f6004820152602401610b27565b60408051600180825260208201869052818301908152606082018590526080820190925290610c535f87848487611e99565b6001600160a01b038416611e3657604051632bfa23e760e11b81525f6004820152602401610b27565b6001600160a01b038516611e5e57604051626a0d4560e21b81525f6004820152602401610b27565b60408051600180825260208201869052818301908152606082018590526080820190925290611e908787848487611e99565b50505050505050565b611ea585858585611eec565b6001600160a01b03841615611c365782513390600103611ede5760208481015190840151611ed78389898585896120fb565b5050610c53565b610c5381878787878761221c565b8051825114611f1b5781518151604051635b05999160e01b815260048101929092526024820152604401610b27565b335f5b835181101561201d576020818102858101820151908501909101516001600160a01b03881615611fcf575f828152602081815260408083206001600160a01b038c16845290915290205481811015611fa9576040516303dee4c560e01b81526001600160a01b038a166004820152602481018290526044810183905260648101849052608401610b27565b5f838152602081815260408083206001600160a01b038d16845290915290209082900390555b6001600160a01b03871615612013575f828152602081815260408083206001600160a01b038b1684529091528120805483929061200d908490612a9c565b90915550505b5050600101611f1e565b50825160010361209d5760208301515f906020840151909150856001600160a01b0316876001600160a01b0316846001600160a01b03167fc3d58168c5ae7397731d063d5bbf3d657854427343f4c083240f7aacaa2d0f62858560405161208e929190918252602082015260400190565b60405180910390a45050611c36565b836001600160a01b0316856001600160a01b0316826001600160a01b03167f4a39dc06d4c0dbc64b70af90fd698a233a518aa5d07e595d983b8c0526c8f7fb86866040516120ec929190612ade565b60405180910390a45050505050565b6001600160a01b0384163b15610c535760405163f23a6e6160e01b81526001600160a01b0385169063f23a6e619061213f9089908990889088908890600401612b0b565b6020604051808303815f875af1925050508015612179575060408051601f3d908101601f1916820190925261217691810190612b4f565b60015b6121e0573d8080156121a6576040519150601f19603f3d011682016040523d82523d5f602084013e6121ab565b606091505b5080515f036121d857604051632bfa23e760e11b81526001600160a01b0386166004820152602401610b27565b805160208201fd5b6001600160e01b0319811663f23a6e6160e01b14611e9057604051632bfa23e760e11b81526001600160a01b0386166004820152602401610b27565b6001600160a01b0384163b15610c535760405163bc197c8160e01b81526001600160a01b0385169063bc197c81906122609089908990889088908890600401612b6a565b6020604051808303815f875af192505050801561229a575060408051601f3d908101601f1916820190925261229791810190612b4f565b60015b6122c7573d8080156121a6576040519150601f19603f3d011682016040523d82523d5f602084013e6121ab565b6001600160e01b0319811663bc197c8160e01b14611e9057604051632bfa23e760e11b81526001600160a01b0386166004820152602401610b27565b80356001600160a01b0381168114612319575f5ffd5b919050565b5f5f6040838503121561232f575f5ffd5b61233883612303565b946020939093013593505050565b6001600160e01b03198116811461199f575f5ffd5b5f6020828403121561236b575f5ffd5b8135610ac881612346565b5f60208284031215612386575f5ffd5b610ac882612303565b5f6020828403121561239f575f5ffd5b5035919050565b5f81518084528060208401602086015e5f602082860101526020601f19601f83011685010191505092915050565b602081525f610ac860208301846123a6565b634e487b7160e01b5f52604160045260245ffd5b604051601f8201601f191681016001600160401b0381118282101715612422576124226123e6565b604052919050565b5f6001600160401b03821115612442576124426123e6565b5060051b60200190565b5f82601f83011261245b575f5ffd5b813561246e6124698261242a565b6123fa565b8082825260208201915060208360051b86010192508583111561248f575f5ffd5b602085015b838110156124ac578035835260209283019201612494565b5095945050505050565b5f82601f8301126124c5575f5ffd5b8135602083015f5f6001600160401b038411156124e4576124e46123e6565b50601f8301601f19166020016124f9816123fa565b91505082815285838301111561250d575f5ffd5b828260208301375f92810160200192909252509392505050565b5f5f5f5f5f60a0868803121561253b575f5ffd5b61254486612303565b945061255260208701612303565b935060408601356001600160401b0381111561256c575f5ffd5b6125788882890161244c565b93505060608601356001600160401b03811115612593575f5ffd5b61259f8882890161244c565b92505060808601356001600160401b038111156125ba575f5ffd5b6125c6888289016124b6565b9150509295509295909350565b5f5f5f606084860312156125e5575f5ffd5b833592506125f560208501612303565b929592945050506040919091013590565b5f5f60408385031215612617575f5ffd5b82356001600160401b0381111561262c575f5ffd5b8301601f8101851361263c575f5ffd5b803561264a6124698261242a565b8082825260208201915060208360051b85010192508783111561266b575f5ffd5b6020840193505b828410156126945761268384612303565b825260209384019390910190612672565b945050505060208301356001600160401b038111156126b1575f5ffd5b6126bd8582860161244c565b9150509250929050565b5f8151808452602084019350602083015f5b828110156126f75781518652602095860195909101906001016126d9565b5093949350505050565b602081525f610ac860208301846126c7565b5f5f60408385031215612724575f5ffd5b61272d83612303565b915060208301358015158114612741575f5ffd5b809150509250929050565b5f5f6040838503121561275d575f5ffd5b50508035926020909101359150565b803560ff81168114612319575f5ffd5b5f5f5f5f5f60a08688031215612790575f5ffd5b85356001600160801b03811681146127a6575f5ffd5b945060208601356001600160401b03811681146127c1575f5ffd5b9350604086013563ffffffff811681146127d9575f5ffd5b92506127e76060870161276c565b915060808601356001600160401b038111156125ba575f5ffd5b5f5f60408385031215612812575f5ffd5b8235915061282260208401612303565b90509250929050565b5f5f6040838503121561283c575f5ffd5b61284583612303565b915061282260208401612303565b5f5f5f5f5f60a08688031215612867575f5ffd5b61287086612303565b945061287e60208701612303565b9350604086013592506060860135915060808601356001600160401b038111156125ba575f5ffd5b600181811c908216806128ba57607f821691505b6020821081036128d857634e487b7160e01b5f52602260045260245ffd5b50919050565b634e487b7160e01b5f52601160045260245ffd5b80820281158282048414176109c0576109c06128de565b634e487b7160e01b5f52603260045260245ffd5b5f8261293757634e487b7160e01b5f52601260045260245ffd5b500490565b5f6001820161294d5761294d6128de565b5060010190565b601f82111561299857805f5260205f20601f840160051c810160208510156129795750805b601f840160051c820191505b81811015611c36575f8155600101612985565b505050565b81516001600160401b038111156129b6576129b66123e6565b6129ca816129c484546128a6565b84612954565b6020601f8211600181146129fc575f83156129e55750848201515b5f19600385901b1c1916600184901b178455611c36565b5f84815260208120601f198516915b82811015612a2b5787850151825560209485019460019092019101612a0b565b5084821015612a4857868401515f19600387901b60f8161c191681555b50505050600190811b01905550565b5f63ffffffff821663ffffffff8103612a7257612a726128de565b60010192915050565b6001600160801b0383168152604060208201525f61102760408301846123a6565b808201808211156109c0576109c06128de565b63ffffffff81811683821601908111156109c0576109c06128de565b818103818111156109c0576109c06128de565b604081525f612af060408301856126c7565b8281036020840152612b0281856126c7565b95945050505050565b6001600160a01b03868116825285166020820152604081018490526060810183905260a0608082018190525f90612b44908301846123a6565b979650505050505050565b5f60208284031215612b5f575f5ffd5b8151610ac881612346565b6001600160a01b0386811682528516602082015260a0604082018190525f90612b95908301866126c7565b8281036060840152612ba781866126c7565b90508281036080840152612bbb81856123a6565b9897505050505050505056fea26469706673582212202278c53e20ef5fddc6c92afe8faf9e2334e617d7e64a87023bd6df57b7bb606264736f6c634300081c0033",
  "linkReferences": {},
  "deployedLinkReferences": {},
  "immutableReferences": {},
  "inputSourceName": "project/contracts/ServiceCreditToken.sol",
  "buildInfoId": "solc-0_8_28-eddcfee8e2a33db91256b4caa84d3f411bfb798d"
}